{
  "contractName": "MyContract",
  "abi": [
    {
      "inputs": [],
      "name": "_owner",
      "outputs": [
        {
          "internalType": "address",
          "name": "",
          "type": "address"
        }
      ],
      "stateMutability": "view",
      "type": "function"
    },
    {
      "inputs": [],
      "name": "isOwner",
      "outputs": [
        {
          "internalType": "bool",
          "name": "",
          "type": "bool"
        }
      ],
      "stateMutability": "view",
      "type": "function"
    },
    {
      "inputs": [],
      "name": "myNumber",
      "outputs": [
        {
          "internalType": "uint256",
          "name": "",
          "type": "uint256"
        }
      ],
      "stateMutability": "view",
      "type": "function"
    },
    {
      "inputs": [
        {
          "internalType": "uint256",
          "name": "_number",
          "type": "uint256"
        }
      ],
      "name": "setMyNumber",
      "outputs": [],
      "stateMutability": "nonpayable",
      "type": "function"
    }
  ],
  "bytecode": "0x608060405234801561001057600080fd5b50336000806101000a81548173ffffffffffffffffffffffffffffffffffffffff021916908373ffffffffffffffffffffffffffffffffffffffff160217905550610370806100606000396000f3fe608060405234801561001057600080fd5b506004361061004c5760003560e01c806323fd0e40146100515780636ffd773c1461006f5780638f32d59b1461008b578063b2bdfa7b146100a9575b600080fd5b6100596100c7565b60405161006691906101b2565b60405180910390f35b610089600480360381019061008491906101fe565b6100cd565b005b61009361011e565b6040516100a09190610246565b60405180910390f35b6100b1610175565b6040516100be91906102a2565b60405180910390f35b60015481565b6100d561011e565b610114576040517f08c379a000000000000000000000000000000000000000000000000000000000815260040161010b9061031a565b60405180910390fd5b8060018190555050565b60008060009054906101000a900473ffffffffffffffffffffffffffffffffffffffff1673ffffffffffffffffffffffffffffffffffffffff163373ffffffffffffffffffffffffffffffffffffffff1614905090565b60008054906101000a900473ffffffffffffffffffffffffffffffffffffffff1681565b6000819050919050565b6101ac81610199565b82525050565b60006020820190506101c760008301846101a3565b92915050565b600080fd5b6101db81610199565b81146101e657600080fd5b50565b6000813590506101f8816101d2565b92915050565b600060208284031215610214576102136101cd565b5b6000610222848285016101e9565b91505092915050565b60008115159050919050565b6102408161022b565b82525050565b600060208201905061025b6000830184610237565b92915050565b600073ffffffffffffffffffffffffffffffffffffffff82169050919050565b600061028c82610261565b9050919050565b61029c81610281565b82525050565b60006020820190506102b76000830184610293565b92915050565b600082825260208201905092915050565b7f4f776e61626c653a2063616c6c6572206973206e6f7420746865206f776e6572600082015250565b60006103046020836102bd565b915061030f826102ce565b602082019050919050565b60006020820190508181036000830152610333816102f7565b905091905056fea264697066735822122039d58063fd051203a06bd3f8b42b5b89ca8be1efd913a8890d806ebf4a97717964736f6c63430008120033",
  "immutableReferences": {},
  "source": "// SPDX-License-Identifier: MIT\npragma solidity ^0.8.18;\n\ncontract Ownable {\n    address public _owner;\n\n    constructor () {\n        _owner = msg.sender;\n    }\n\n    /**\n    * @dev Throws if called by any account other than the owner.\n    */\n    modifier onlyOwner() {\n        require(isOwner(), \"Ownable: caller is not the owner\");\n        _;\n    }\n\n    /**\n    * @dev Returns true if the caller is the current owner.\n    */\n    function isOwner() public view returns (bool) {\n        return (msg.sender == _owner);\n    }\n}\n\ncontract MyContract is Ownable {\n\n    uint public myNumber;\n\n    function setMyNumber(uint _number) public onlyOwner {\n        myNumber = _number;\n    }\n}\n",
  "sourcePath": "/Users/shunsukekano/Developer/module7_assignment/truffle/contracts/Ownable.sol",
  "compiler": {
    "name": "solc",
    "version": "0.8.18+commit.87f61d96.Emscripten.clang"
  },
  "schemaVersion": "3.4.13",
  "updatedAt": "2023-03-23T01:26:25.262Z",
  "devdoc": {
    "kind": "dev",
    "methods": {
      "isOwner()": {
        "details": "Returns true if the caller is the current owner."
      }
    },
    "version": 1
  },
  "userdoc": {
    "kind": "user",
    "methods": {},
    "version": 1
  }
}